:100000000C942A000C9447000C9447000C94470071
:100010000C9447000C9447000C9447000C94470044
:100020000C9447000C9434030C9447000C94470044
:100030000C9447000C9447000C9447000C94470024
:100040000C9447000C9447000C9447000C94470014
:100050000C94470011241FBECFE5D4E0DEBFCDBF16
:1000600010E0A0E6B0E0EAEDF7E002C005900D92E6
:10007000A03CB107D9F720E0A0ECB0E001C01D9290
:10008000A63CB207E1F70E9450020C94EB030C94DB
:1000900000008BB3806F8BBB8AB38F708ABBDA9AF8
:1000A000DA9A99B3DA98DA9ADA9A29B3DA98229531
:1000B0002F70892F807F822B08952BB32F70982F5C
:1000C000907F922B9BBBDA9ADA9830E1839FC00134
:1000D0001124822B8BBBDA9ADA980895CF93DF93A1
:1000E0001F92CDB7DEB7D898D99A0E94490089836C
:1000F00089818823C4F3D9988FEF8ABB0F90DF9151
:10010000CF9108958FEF8ABB8ABBD898D998DA9897
:10011000DA9ADD9ADA980E946E0088E20E945D0009
:100120000E946E00D8988CE00E945D000E946E00D4
:10013000D89886E00E945D000E946E000895D898CD
:1001400082E00E945D000E946E000895D89890E4BD
:10015000899F600D1124862F815C0E945D000E94A2
:100160006E000895D89881E00E945D000E946E00A4
:100170000895D89A0E945D000E946E0008950F9322
:100180001F93CF93FC018081882359F08F01C0E039
:100190000E94B900CF5FF801EC0FF11D8081811141
:1001A000F7CFCF911F910F9108954F925F926F9269
:1001B0007F928F929F92AF92BF92CF92DF92EF92F7
:1001C000FF920F931F934B015C0129013A018EE0CE
:1001D00090E0A0E0B0E0BC01CD01621B730B840B8A
:1001E000950B2CE030E040E050E00E945B03D8012A
:1001F000C70180549D4EAF4FBF4F6C017D01C21AA5
:10020000D30AE40AF50ADA01C901880F991FAA1F67
:10021000BB1F820F931FA41FB51F880F991FAA1F12
:10022000BB1F880F991FAA1FBB1F840D951DA61DFC
:10023000B71D9C01AD012350310941095109A9E9BC
:10024000B0E00E947A036E5F7F4F8F4F9F4F25E093
:1002500030E040E050E00E945B03820E931EA41E3B
:10026000B51EADE6B1E0A70196010E947A03860EA5
:10027000971EA81EB91ED701C601FF201CF40396C5
:10028000A11DB11DB595A79597958795B595A7958E
:1002900097958795880E991EAA1EBB1EC701B601A9
:1002A00024E630E040E050E00E945B03821A930AAB
:1002B000A40AB50AC701B60120E931E040E050E0E8
:1002C0000E945B03D501C401820F931FA41FB51FB9
:1002D000BC01CD016D527D478109910927E030E0D5
:1002E00040E050E00E945B031F910F91FF90EF9060
:1002F000DF90CF90BF90AF909F908F907F906F9046
:100300005F904F9008954F925F926F927F928F927D
:100310009F92AF92BF92CF92DF92EF92FF920F9394
:100320001F93CF93DF93CDB7DEB7E6970FB6F89460
:10033000DEBF0FBECDBF6BAB7CAB8DAB9EAB2901DF
:100340003A01470158010E94D5006B017C014AE047
:10035000BE016F5F7F4F8BA99CA90E94B6034AE044
:10036000BE01655F7F4FC2010E94B6034AE0BE0135
:10037000615E7F4FC4010E94B6038AEB90E00E9449
:10038000BF00CE0101960E94BF0086EB90E00E9464
:10039000BF00CE010B960E94BF0086EB90E00E944A
:1003A000BF00CE014F960E94BF008BEB90E00E94F1
:1003B000BF00C601880F991FCC0CDD1CCC0CDD1CC6
:1003C000CC0CDD1C8C0D9D1D80599F4F0E94BF00E1
:1003D000E6960FB6F894DEBF0FBECDBFDF91CF918A
:1003E0001F910F91FF90EF90DF90CF90BF90AF9053
:1003F0009F908F907F906F905F904F900895CF92D5
:10040000DF92EF92FF920F931F93CF93DF93CDB7BD
:10041000DEB7E0970FB6F894DEBF0FBECDBF6C011C
:100420007B018A010E949F004AE0BE016F5F7F4FFF
:10043000C6010E94B6034AE0BE016F5E7F4FC7014E
:100440000E94B6034AE0BE016F5D7F4FC8010E9463
:10045000B60388EB90E00E94BF00CE0101960E9497
:10046000BF008DEB90E00E94BF00CE0141960E943C
:10047000BF008DEB90E00E94BF00CE0181960E94EC
:10048000BF00E0960FB6F894DEBF0FBECDBFDF9180
:10049000CF911F910F91FF90EF90DF90CF90089533
:1004A0000E9482000E94B20083E083BF82E882BF84
:1004B00081E089BF78944091C4005091C50060915B
:1004C0006C0070916D0080916E0090916F000E94A1
:1004D000FF0161E082E00E94A600A090C000B09001
:1004E000C100C090C200D090C300E0906000F090C6
:1004F00061000091620010916300209164003091CE
:1005000065004091660050916700609168007091AD
:10051000690080916A0090916B000E948301809134
:10052000C0009091C100A091C200B091C300883E6C
:100530009340A105B1050CF4BECF4091C400509189
:10054000C5004F5F5F4F5093C5004093C4004C33CC
:1005500051055CF460916C0070916D0080916E00AB
:1005600090916F000E94FF015FC01092C500109231
:10057000C40060916C0070916D0040E050E080918B
:100580006E0090916F000E94FF0160916C0070916D
:100590006D006F5F7F4F70936D0060936C006C33E4
:1005A00071055CF44091C4005091C50080916E00CB
:1005B00090916F000E94FF0137C010926D00109261
:1005C0006C004091C4005091C50060E070E08091E3
:1005D0006E0090916F000E94FF0180916E009091DB
:1005E0006F00019690936F0080936E0088319105A3
:1005F0005CF44091C4005091C50060916C00709112
:100600006D000E94FF0110C010926F0010926E00EA
:100610004091C4005091C50060916C0070916D00D4
:1006200080E090E00E94FF014091C4005091C5001D
:1006300060916C0070916D0080916E0090916F00E0
:100640000E94FF011092C0001092C1001092C200DF
:100650001092C3008091C4009091C500892B09F0CD
:100660002ACF0E94B20027CF1F920F920FB60F928F
:1006700011248F939F93AF93BF9382E882BF8091A1
:10068000C0009091C100A091C200B091C30001963A
:10069000A11DB11D8093C0009093C100A093C20022
:1006A000B093C300BF91AF919F918F910F900FBEF8
:1006B0000F901F901895052E97FB1EF400940E9432
:1006C000720357FD07D00E94850307FC03D04EF448
:1006D0000C94720350954095309521953F4F4F4FA4
:1006E0005F4F089590958095709561957F4F8F4FDE
:1006F0009F4F08950E94A703A59F900DB49F900D52
:10070000A49F800D911D11240895A1E21A2EAA1B09
:10071000BB1BFD010DC0AA1FBB1FEE1FFF1FA217B1
:10072000B307E407F50720F0A21BB30BE40BF50BAE
:10073000661F771F881F991F1A9469F76095709537
:10074000809590959B01AC01BD01CF010895A29FBA
:10075000B001B39FC001A39F700D811D1124911D95
:10076000B29F700D811D1124911D0895BB274A3041
:1007700031F4992322F4BDE2909581959F4F0C941A
:10078000C203BB27FB015527AA27880F991FAA1F61
:10079000A41710F0A41B83955051B9F7A05DAA339C
:1007A00008F0A95DA193009779F7B111B193119267
:1007B000CB010C94DB03DC01FC01672F71917723E3
:1007C000E1F7329704C07C916D9370836291AE170C
:0A07D000BF07C8F30895F894FFCFA7
:1007DA00E4070000080000000500000023001500DF
:1007EA004D4F4E0000000000000054554500000027
:1007FA000000000057454400000000000000544873
:10080A0055000000000000004652490000000000A8
:10081A0000005341540000000000000053554E00F0
:10082A000000000000002D0020202020003A0000D7
:00000001FF
